:020000040800F2
:10000000300F002001010008992D0008D3260008B8
:10001000952D00086D120008BF2F00080000000099
:10002000000000000000000000000000C52D0008D6
:100030009D120008000000009B2D0008C72D00083D
:100040001B0100081B0100081B0100081B01000820
:100050001B0100081B0100081B0100081B01000810
:100060001B0100081B0100081B0100081B01000800
:100070001B0100081B0100081B0100081B010008F0
:100080001B0100081B0100081B0100081B010008E0
:100090001B0100081B0100081B0100089F1200083B
:1000A0001B0100081B0100081B0100081B010008C0
:1000B0001B0100081B0100081B0100081B010008B0
:1000C0001B0100081B0100081B0100081B010008A0
:1000D0001B0100081B0100081B0100081B01000890
:1000E0001B0100081B0100081B010008DFF80CD0F1
:1000F00001F0AAF8004800472D390008300F002011
:100100000648804706480047FEE7FEE7FEE7FEE7B1
:10011000FEE7FEE7FEE7FEE7FEE7FEE72F2E00081C
:10012000ED0000082DE9FF4FA3B06FF00302239804
:100130002399406802908968209123990988189131
:1001400002EB8101084403902698C0081F9000F03C
:1001500084831898C008219024980168039801604E
:100160002498039950F8042F41F8042F50F8042FD5
:1001700041F8042F50F8042F41F8042F00220C926C
:1001800001921392129210920F920E920D92209D54
:10019000029C50F8042F41F8042F50F8042F41F826
:1001A000042F50F8042F41F8042F42684A600831A8
:1001B00008300391249054F8040B0B9054F804ABCE
:1001C00054F8040B089054F8049BDDF884B054F8FC
:1001D000048BBBF1000F54F8047B54F8046B00F05F
:1001E000B28200BF55F8040B009054F8040B0A903B
:1001F00000990B9800F08FFC11905046009900F088
:100200008AFC1B900099089800F085FC17904846DE
:10021000009900F080FC1A904046009900F07BFCA9
:1002200019903846009900F076FC169030460099F7
:1002300000F071FC159000990A9800F06CFC149085
:1002400055F8040B009054F8040B0B901199019889
:1002500000F009FC01901B99139800F004FC139026
:100260001799129800F0FFFB12901A99109800F05D
:10027000FAFB109019990F9800F0F5FB0F90169962
:100280000E9800F0F0FB0E9015990D9800F0EBFB26
:100290000D9014990C9800F0E6FB0C9050460099D4
:1002A00000F039FC11900099089800F034FC1B9084
:1002B0004846009900F02FFC17904046009900F046
:1002C0002AFC1A903846009900F025FC1990304617
:1002D000009900F020FC169000990A9800F01BFC91
:1002E000159000990B9800F016FC149055F8040B2B
:1002F000009054F804AB1199019800F0B4FB019000
:100300001B99139800F0AFFB13901799129800F007
:10031000AAFB12901A99109800F0A5FB1090199959
:100320000F9800F0A0FB0F9016990E9800F09BFB21
:100330000E9015990D9800F096FB0D9014990C985D
:1003400000F091FB0C900099089800F0E4FB1190EC
:100350004846009900F0DFFB1B904046009900F0F2
:10036000DAFB17903846009900F0D5FB1A9030461A
:10037000009900F0D0FB199000990A9800F0CBFB8F
:10038000169000990B9800F0C6FB15905046009906
:1003900000F0C1FB149055F8040B009054F8040BC6
:1003A00008901199019800F05EFB01901B99139839
:1003B00000F059FB13901799129800F054FB12901B
:1003C0001A99109800F04FFB109019990F9800F0AF
:1003D0004AFB0F9016990E9800F045FB0E90159968
:1003E0000D9800F040FB0D9014990C9800F03BFB29
:1003F0000C904846009900F08EFB11904046009901
:1004000000F089FB1B903846009900F084FB1790A0
:100410003046009900F07FFB1A9000990A9800F08E
:100420007AFB199000990B9800F075FB16905046D6
:10043000009900F070FB15900099089800F06BFB94
:10044000149055F8040B009054F8049B11990198EE
:1004500000F009FB01901B99139800F004FB139026
:100460001799129800F0FFFA12901A99109800F05C
:10047000FAFA109019990F9800F0F5FA0F90169962
:100480000E9800F0F0FA0E9015990D9800F0EBFA26
:100490000D9014990C9800F0E6FA0C9040460099E3
:1004A00000F039FB11903846009900F034FB1B90A6
:1004B0003046009900F02FFB179000990A9800F041
:1004C0002AFB1A9000990B9800F025FB19905046D2
:1004D000009900F020FB16900099089800F01BFB93
:1004E00015904846009900F016FB149055F8040B3F
:1004F000009054F8048B1199019800F0B4FA01901F
:100500001B99139800F0AFFA13901799129800F006
:10051000AAFA12901A99109800F0A5FA1090199959
:100520000F9800F0A0FA0F9016990E9800F09BFA21
:100530000E9015990D9800F096FA0D9014990C985C
:1005400000F091FA0C903846009900F0E4FA11900E
:100550003046009900F0DFFA1B9000990A9800F0ED
:10056000DAFA179000990B9800F0D5FA1A905046D5
:10057000009900F0D0FA19900099089800F0CBFA91
:1005800016904846009900F0C6FA1590404600992A
:1005900000F0C1FA149055F8040B009054F8047B55
:1005A0001199019800F05FFA01901B99139800F0DF
:1005B0005AFA13901799129800F055FA12901A9956
:1005C000109800F050FA109019990F9800F04BFA1B
:1005D0000F9016990E9800F046FA0E9015990D9806
:1005E00000F041FA0D9014990C9800F03CFA0C9030
:1005F0003046009900F08FFA119000990A9800F0A7
:100600008AFA1B9000990B9800F085FA17905046D3
:10061000009900F080FA1A900099089800F07BFA8F
:1006200019904846009900F076FA169040460099D5
:1006300000F071FA15903846009900F06CFA1490A9
:1006400055F8040B009054F8046B1199019800F0D0
:100650000AFA01901B99139800F005FA1390179964
:10066000129800F000FA12901A99109800F0FBF915
:10067000109019990F9800F0F6F90F9016990E98AE
:1006800000F0F1F90E9015990D9800F0ECF90D902D
:1006900014990C9800F0E7F90C9000990A9800F072
:1006A0003AFA119000990B9800F035FA1B905046D9
:1006B000009900F030FA17900099089800F02BFA92
:1006C0001A904846009900F026FA19904046009981
:1006D00000F021FA16903846009900F01CFA1590A7
:1006E0003046009900F017FA1490ABF1010B119904
:1006F000019800F0B8F901901B99139800F0B3F934
:1007000013901799129800F0AEF912901A99109858
:1007100000F0A9F9109019990F9800F0A4F90F9022
:1007200016990E9800F09FF90E9015990D9800F00B
:100730009AF90D9014990C9800F095F90C90BBF172
:10074000000F7FF44FAD189810F0070B63D000BF77
:1007500055F8040B009054F8040B0A9000990B987C
:1007600000F0D9F911905046009900F0D4F91B908F
:100770000099089800F0CFF917904846009900F0CA
:10078000CAF91A904046009900F0C5F91990384608
:10079000009900F0C0F916903046009900F0BBF9BE
:1007A000159000990A9800F0B6F9CDF82CA0DDF864
:1007B00020A0CDF82090C1461490B84637460A9E36
:1007C0001199019800F04FF901901B99139800F0CE
:1007D0004AF913901799129800F045F912901A9956
:1007E000109800F040F9109019990F9800F03BF91B
:1007F0000F9016990E9800F036F90E9015990D98F5
:1008000000F031F90D9014990C9800F02CF90C902F
:10081000BBF1010B9CD102982030029025990198E0
:1008200008602598139940F8041F129940F8041F96
:10083000109940F8041F0F9940F8041F0E9940F8D2
:10084000041F0D9940F8041F0C9941600830259051
:100850001F98401E1F907FF47FAC269810F0070869
:1008600050D0249800250168039801602498209EA8
:10087000001D24900398029C001D0390DDF86090F9
:100880003168206800F047F9294600F0ECF8371D80
:10089000261D0546B9F1010429D0B4F1004F7DD2DF
:1008A000002C24DD361F3F1F14F0010F09D057F82C
:1008B000041F56F8040F00F02EF9294600F0D3F873
:1008C0000546641013D07968706800F024F9294651
:1008D00000F0C9F8054657F8081F56F8080F00F051
:1008E0001AF9294600F0BFF80546641EEBD1259899
:1008F00005602598001D25900298001D0290B8F112
:100900000108AED12398189940684C1EA30820D046
:10091000B3F1004F56D2002B1BDD029A01469C46D4
:1009200052F8045B41F8045B52F8045B41F8045B45
:1009300052F8085B41F8085B52F8045C41F8045C2B
:10094000BCF1010CECD1029900EB031001EB031197
:10095000029114F0030104BF27B0BDE8F08FB1F19C
:10096000004F44D20029DCBF27B0BDE8F08F031F41
:10097000029A121F11F0010F03D052F8040F43F82E
:10098000040F480804BF27B0BDE8F08F51685960D4
:1009900052F8081F43F8081F401E00E003E0F5D19D
:1009A00027B0BDE8F08F3968306800F0B4F8294608
:1009B00000F059F80546641E06F1040607F1040725
:1009C000F1D194E70299096840F8041B029951F8A3
:1009D000042F40F8042B51F8042F40F8042B4A68E8
:1009E000083140F8042B02915B1EEBD1B1E7029A6B
:1009F000126840F8042B029A121D0292491EF6D189
:100A000027B0BDE8F08F70B50446049821800844F3
:100A10008000011F1D461846A26000F019F86560AD
:100A200070BD202A04DB203A21FA02F00021704731
:100A300021FA02F3D040C2F1200291400843194646
:100A40007047D2B201E000F8012B491EFBD270477B
:100A50000022F6E710B513460A4604461946FFF78A
:100A6000F0FF204610BDF0B480EA0102D40F42002E
:100A7000B2EB410F02D20246084611464A0042D06C
:100A8000C30DDDB2C1F3C752AD1A202D35DAC1F363
:100A9000160141F4000204B15242C5F1200602FAE7
:100AA00006F12A411044B3EBD05F23D0C4B1012D2D
:100AB000A0EBC35009DCF0BC4FF0004202EAC35285
:100AC000DBB200F5000000F0ACBA400000F180702D
:100AD00000EBC350A0F1807040EAD170490009E0FA
:100AE000490841EAC071A0EBC35000F5000040087E
:100AF00000EBC350F0BC00F08BBA6142012202EB64
:100B00004101001BF6E7F0BC704781F00041AAE705
:100B100080F00040A7E780EA010210B502F0004330
:100B2000400022D04A001FD0010E01EB1261C0F339
:100B30005600C2F3560240F4000042F40002A0FB4B
:100B4000022000047F39140400D0401C50EA1240F7
:100B500001D44000491EC2B20C0604EBD010401C68
:100B60004008802A02D003E0002010BD20F00100E0
:100B7000002900DA0020184310BD30B480EA0102D9
:100B800002F0004530F0004221F0004013D090B157
:100B9000C30DD40DC2F31601C0F31600E41A41F4DC
:100BA000000140F400027D34914201D3641C00E056
:100BB0004900002C02DA30BC002070474FF40000DE
:100BC0000023914201D3891A034340084FEA4101AF
:100BD000F7D151B1914202D14FF0004105E002D26C
:100BE0004FF0010101E06FF0010103EBC450284414
:100BF00030BC00F00DBA2DE9FE4F804681EA0300BB
:100C0000C00F0C46009021F0004123F00045B8EBE6
:100C10000200A94105D24046214690461C460B469B
:100C2000024623F00040104347D0270DC7F30A00C7
:100C3000C3F30A510290401A019040286BDAC3F3C3
:100C4000130040F4801B0098924620B10023D2EBA1
:100C5000030A63EB0B0B01985946C0F14002504662
:100C600000F0B5F906460D4650465946019A00F087
:100C7000BDF910EB08006141002487EA115284EAB3
:100C8000E7731A4340D0009A62B3019A012A4FEAEF
:100C9000075215DC001B61EB02014FF0004202EA33
:100CA0000752CDE90042001C41F5801132462B4627
:100CB00000F0F4F903B0BDE8F08F40462146F9E7B3
:100CC000001B61EB0201001C41F5801300185B4121
:100CD0002018A2F5001747EB030140EAD570B619BA
:100CE0006D4111E06D084FEA360645EAC0754FEADE
:100CF0000752001B61EB0201001C41F580114908FD
:100D00004FEA30000019514132462B4603B0BDE88E
:100D1000F04F00F0B4B90098012240000023D0EB5E
:100D2000020263EBE073009821464FEAE074B8EBEF
:100D3000000061EB0401E9E783F000435BE781F029
:100D4000004158E72DE9FE4F81EA030404F0004416
:100D500021F0004100944FF0000B23F0004350EAD3
:100D600001045ED052EA03045BD0C3F30A54C1F31A
:100D70000A552C44A4F2F3340194A0FB0254C1F3AD
:100D8000130141F48011C3F3130343F4801301FBF7
:100D9000024400FB034E840A970A44EA815447EA5E
:100DA0008357A4FB076802958D0A05FB07854FEA68
:100DB000932C04FB0C542705029D4FEA065847EA82
:100DC0001637B5EB08056EEB070C870E920E47EA57
:100DD000811742EA8312A7FB0201B6EB0B0164EB19
:100DE00000042B0D43EA0C335E1844EB1C50DA462A
:100DF0005146E7FB0201C5F313044FEA0B3343EA04
:100E000014534FEA0432019C43EA0603A4F10C0494
:100E10000294009CCDE900B400F040F903B0BDE8B5
:100E2000F08F00200146F9E796230022114600F0DA
:100E3000F8B820F00040C10DC0F3160040F40000E7
:100E40007F2901DA00207047962903DCC1F1960161
:100E5000C840704796398840704700F0004230F033
:100E600000400AD0C10D01F56071C0F3160042EADE
:100E70000151C208400711437047002001467047E6
:100E800030B5041E71F1000404DB4FF00044404211
:100E900064EB0101141E73F1000405DB1C464FF0E6
:100EA0000043524263EB04038B4208BF824230BDD1
:100EB00030B5041E71F1000404DB4FF000444042E1
:100EC00064EB0101141E73F1000405DB1C464FF0B6
:100ED0000043524263EB0403994208BF904230BD85
:100EE00001F0004330B421F0004150EA010206D085
:100EF0000A0DA2F56072C1F31301002A02DC30BCB6
:100F000000207047440F44EAC104C100E01830BC1F
:100F100000EBC25000F07CB8002801DBC0F10040BB
:100F2000002901DBC1F1004181427047002801DB4B
:100F3000C0F10040002901DBC1F100418842704747
:100F400030B50B46014600202022012409E021FA99
:100F500002F59D4205D303FA02F5491B04FA02F596
:100F60002844151EA2F10102F1DC30BD2DE9F05F2D
:100F70000546002092469B46884606468146402408
:100F80001BE02846414647462246FFF74AFD5346A6
:100F90005A46C01A914110D311461846224600F015
:100FA00016F82D1A67EB01084F4622460120002152
:100FB00000F00DF817EB00094E41201EA4F10104CA
:100FC000DFDC484631462A464346BDE8F09F202AEA
:100FD00004DB203A00FA02F1002070479140C2F190
:100FE000200320FA03F3194390407047202A06DBC0
:100FF000CB17203A41FA02F043EAE07306E041FAE7
:1010000002F3D040C2F120029140084319467047D4
:101010000029A8BF7047401C490008BF20F001000C
:10102000704710B4B0FA80FC00FA0CF050EA0104EA
:1010300004BF10BC704749B1CCF1200421FA04F47C
:1010400011FA0CF118BF012121430843A3EB0C0155
:10105000CB1D4FEA00614FEA102042BF002010BCB8
:10106000704700EBC35010440029A4BF10BC704768
:10107000401C490008BF20F0010010BC704710B5AB
:10108000141E73F1000408DA401C41F100019218AB
:101090005B411A4301D120F0010010BD2DE9F04D54
:1010A00092469B4611B1B1FA81F202E0B0FA80F2A9
:1010B00020329046FFF78BFF04460F4640EA0A00B5
:1010C00041EA0B0153465A46084313D0114653EAEE
:1010D000010019D0C8F140025046FFF7A2FC0546B6
:1010E0000E46504659464246FFF771FF084305D069
:1010F000012004E020463946BDE8F08D002005437C
:1011000046EAE0762C4337430A986305E40AA0EBED
:1011100008000022FD0A44EA47540A3002D50020A4
:101120000146E9E7010510196941DDE908450019A3
:101130006941BDE8F04DA2E72DE9F04D81EA0304D5
:1011400004F0004B21F0004514464FF0000A23F054
:10115000004150EA050220D054EA01021DD0C5F337
:101160000A570246C5F31303C1F31300C1F30A562D
:1011700040F4801543F48013A7EB0608101BD646F5
:1011800008F2FD3873EB050002D308F1010801E015
:1011900092185B41B8F1000F03DA00200146BDE868
:1011A000F08D00204FF48011064684460EE0171B98
:1011B00073EB050705D3121B63EB050306434CEAEB
:1011C000010C49084FEA300092185B4150EA0107D0
:1011D000EDD152EA030012D082EA040083EA05014D
:1011E000084305D0101BAB4106D20122002306E0C4
:1011F00000224FF0004302E06FF0010253101AEB9F
:1012000006004CEB085110EB0A0041EB0B01BDE866
:10121000F04DFFF734BFC1F30A52C1F3130140F29E
:10122000FF3341F480119A4202DA002001467047F0
:1012300040F233439A42A2F2334202DC5242FFF7B9
:10124000F0BBFFF7C4BE0000064C074D06E0E068A7
:1012500040F0010394E8070098471034AC42F6D3FD
:10126000FEF748FF544100087441000800BFFEE744
:1012700010B50848084908604FF4E1304860002183
:1012800005488160C160016181610C21416101F00B
:1012900045F910BD00380140D8090020704710B54D
:1012A0004FF4807000F020F810BD000070B50446C7
:1012B00000F0B8F906462546681C10B104480078CD
:1012C000054400BF00F0AEF9801BA842FAD370BD00
:1012D0000C000020B0F5807F02D10121014A11707D
:1012E000704700000D00002010B504460448006857
:1012F000204020B1024804602046FFF7EBFF10BDFC
:10130000140401402DE9F8470346002294466EE19B
:101310004FF0010808FA02F4D1F8008008EA04004E
:10132000A0427DD1DFF8DCA2D1F80480A8EB0A0945
:10133000D0453AD014DCB8F1030F50D009DCB8F135
:10134000000F31D0B8F1010F1CD0B8F1020F49D114
:1013500020E0B8F1110F18D0B8F1120F42D11EE001
:10136000B9F5881F25D006DCB9F5803F20D0B9F546
:10137000801F37D11AE0B9F5001F18D0B9F5041F46
:1013800030D117E0D1F80CC02DE0D1F80C8008F175
:10139000040C28E0D1F80C8008F1080C23E0D1F807
:1013A0000C8008F10C0C1EE000BF00BF00BF00BFA6
:1013B00000BF00BFD1F80880B8F1000F02D14FF094
:1013C000040C0BE0D1F80880B8F1010F03D14FF005
:1013D000080C1C6102E04FF0080C5C6103E04FF068
:1013E000000C00E000BF00BFFF2801D8984601E0D4
:1013F00003F104084646FF2802D84FEA820803E0BA
:10140000A2F108084FEA88084746D6F800804FF056
:101410000F0909FA07F928EA09080CFA07F900E0A8
:1014200088E048EA0908C6F80080D1F8048008F08E
:101430008058B8F1805F7DD100BFDFF8CC81D8F84B
:10144000188048F00108DFF8C091C9F81880C84634
:10145000D8F8188008F00108CDF8008000BF00BF60
:101460004FEAB9384FEA920958F829504FEA827882
:101470004FEA18794FF00F0808FA09F825EA08052D
:10148000DFF88881434502D14FF0000816E0DFF80D
:101490008081434502D14FF001080FE0DFF87481ED
:1014A000434502D14FF0020808E0DFF86C81434564
:1014B00002D14FF0030801E04FF004084FEA8279AF
:1014C0004FEA197908FA09F848EA0505DFF84C816E
:1014D0004FEA920948F82950D1F8048008F480189E
:1014E000B8F5801F0AD1DFF83881D8F8008048EAC3
:1014F0000008DFF82C91C9F8008009E0DFF82081AE
:10150000D8F8008028EA0008DFF81491C9F80080B4
:10151000D1F8048008F40018B8F5001F10D1DFF8E6
:10152000008108F10408D8F8008048EA0008DFF8D4
:10153000F09000E05AE009F10409C9F800800DE0DC
:10154000DFF8DC8008F10408D8F8008028EA0008F9
:10155000DFF8CC9009F10409C9F80080D1F80480C3
:1015600008F40038B8F5003F0ED1DFF8B480A8F1D8
:101570000408D8F8008048EA0008DFF8A490A9F130
:101580000409C9F800800DE0DFF89480A8F1040890
:10159000D8F8008028EA0008DFF88490A9F104094F
:1015A000C9F80080D1F8048008F48038B8F5803F8D
:1015B0000ED1DFF86C80A8F10808D8F8008048EA5E
:1015C0000008DFF85C90A9F10809C9F800800DE077
:1015D000DFF84C80A8F10808D8F8008028EA000855
:1015E000DFF83C90A9F10809C9F80080521CD1F835
:1015F000008028FA02F8B8F1000F7FF489AEBDE848
:10160000F88700000000111000100240000801409F
:10161000000C01400010014000140140080001408E
:1016200008040140014800687047000004000020E1
:10163000014691F83D00704770B504460CB9012091
:1016400070BD94F83D0028B9002084F83C00204685
:1016500000F048FB242084F83D002068006820F05A
:101660000100216808602068006840F4004021689B
:1016700008602068006820F400402168086000F0DD
:10168000A9FC05465C496068884206D85B488542EB
:1016900001D2012007E0002005E05948854201D22F
:1016A000012000E00020012800D1C9E75548B5FB22
:1016B000F0F62068406820F03F0030432168486021
:1016C0004D496068884201D8701C07E04FF496705D
:1016D00070434FF47A71B0FBF1F0401C2168096A45
:1016E00021F03F010843216808624349606888424D
:1016F00014D8681E61684900B0FBF1F0401CC0F3CB
:101700000B00042801D204203DE0681E61684900F6
:10171000B0FBF1F0401CC0F30B0034E0A06838B916
:10172000681E616801EB4101B0FBF1F0401C0AE06A
:10173000681E616801EBC10202EB0111B0FBF1F020
:10174000401C40F48040C0F30B0008B901201AE0AF
:10175000A06848B9681E616801EB4101B0FBF1F077
:10176000401CC0F30B000CE0681E616801EBC10275
:1017700002EB0111B0FBF1F0401CC0F30B0040F490
:10178000804040F400402168C9694CF6FF729143E3
:1017900008432168C861D4E9070108432168096842
:1017A00021F0C001084321680860D4E90310084310
:1017B0002168896848F2FF329143084321688860B4
:1017C000D4E9050108432168C96821F0FF010843F5
:1017D0002168C8602068006840F001002168086046
:1017E00000202064202084F83D000020206384F83D
:1017F0003E0000BF24E70000A086010080841E0098
:1018000000093D0040420F002DE9FC47044689468F
:10181000174698460A9E00200190FFF703FF0546F1
:1018200094F83D0020286FD119230122CD4920468C
:10183000009501F09EF810B10220BDE8FC8700BFC2
:1018400094F83C00012801D10220F6E7012084F839
:101850003C0000BF2068006800F0010028B9206843
:10186000006840F00100216808602068006820F4EA
:10187000006021680860222084F83D00102084F870
:101880003E00002020646762A4F82A80608D2085D5
:10189000B548E0622B4632464946204600F03AFF02
:1018A00008B10120C9E7208D88B900BF0020009051
:1018B00020684069009020688069009000BF00BFE8
:1018C0002068006840F40070216808604BE0208DBB
:1018D00001281AD12068006820F48060216808601F
:1018E00072B600BF00200090206840690090206818
:1018F0008069009000BF00BF2068006840F400705D
:101900002168086062B62EE029E1208D022819D1F5
:101910002068006840F400602168086072B600BF6B
:101920000020009020684069009020688069009045
:1019300000BF00BF2068006820F480602168086054
:1019400062B610E02068006840F48060216808609A
:1019500000BF0020009020684069009020688069E6
:10196000009000BF00BFEBE0208D03287ED8208DC3
:10197000012815D12A463146204601F0D6F808B193
:1019800001205AE720680069616A0870606A401C9B
:101990006062208D401E2085608D401E6085CFE0F6
:1019A000208D02282CD13346002270492046009514
:1019B00000F0DFFF08B101203FE772B62068006841
:1019C00040F400702168086020680069616A08704E
:1019D000606A401C6062208D401E2085608D401E24
:1019E000608562B620680069616A0870606A401CA0
:1019F0006062208D401E2085608D401E60859FE0C6
:101A00003346002259492046009500F0B2FF08B144
:101A1000012012E72068006820F4806021680860D7
:101A200072B620680069616A0870606A401C606272
:101A3000208D401E2085608D401E60854C480068CA
:101A40001921B0FBF1F04FF47A71B0FBF1F0C0EB6B
:101A5000C00000EB8000019000BF0198401E019083
:101A60000198A8B900202063202000E038E084F825
:101A70003D00002084F83E00206C40F020002064EF
:101A800062B600BF002084F83C0000BF0120D4E60D
:101A900020684069C0F380000028DED0206800681C
:101AA00040F400702168086020680069616A08706D
:101AB000606A401C6062208D401E2085608D401E43
:101AC000608562B620680069616A0870606A401CBF
:101AD0006062208D401E2085608D401E60852FE055
:101AE0002A463146204601F020F808B10120A4E63C
:101AF00020680069616A0870606A401C6062208D1D
:101B0000401E2085608D401E608520684069C0F3BE
:101B10008000A8B1208D032805D12068006820F43A
:101B200080602168086020680069616A0870606AE6
:101B3000401C6062208D401E2085608D401E6085A7
:101B4000208D00287FF410AF202084F83D00002075
:101B500084F83E0000BF84F83C0000BF6DE6022020
:101B60006BE60000020010000000FFFF040001000F
:101B7000000000202DE9F8430446894616461F461A
:101B8000DDF82080FFF74EFD054694F83D00202843
:101B90007ED11923012251492046009500F0E9FE2B
:101BA00010B10220BDE8F88300BF94F83C00012882
:101BB00001D10220F6E7012084F83C0000BF206834
:101BC000006800F0010028B92068006840F00100BA
:101BD000216808602068006820F4006021680860BF
:101BE000212084F83D00102084F83E00002020646D
:101BF00066626785608D20853948E0622B464246E3
:101C00004946204600F022FE08B10120CAE700BF85
:101C10000020009020684069009020688069009052
:101C200000BF00BF44E02A464146204600F0C2FF04
:101C300050B1206C042805D12068006840F4007081
:101C4000216808600120ADE7606A007821680861BA
:101C5000606A401C6062608D401E6085208D401E61
:101C6000208520684069C0F3800070B1208D60B18C
:101C7000606A007821680861606A401C6062608D5B
:101C8000401E6085208D401E20852A46414600E08A
:101C900022E0204600F03AFE50B1206C042805D125
:101CA0002068006840F4007021680860012079E72E
:101CB000208D0028B7D12068006840F400702168AA
:101CC0000860202084F83D00002084F83E0000BF1A
:101CD00084F83C0000BF65E7022063E702001000C3
:101CE0000000FFFF704700000348006803490978BF
:101CF0000844014908607047040000200C000020DF
:101D000010B50848006840F010000649086003203C
:101D100000F080F80F2000F007F800F02BF800200A
:101D200010BD00000020024070B504460E48007847
:101D30004FF47A71B1FBF0F00C490968B1FBF0F592
:101D4000284600F0D1FB08B1012070BD102C07D24D
:101D500000222146501E00F01EF80548046001E0F4
:101D60000120F2E70020F0E70C0000200000002036
:101D700008000020704701460846002809DB00F0F3
:101D80001F0301229A4043099B0003F1E023C3F89B
:101D9000002100BF70472DE9F05F80460D461646D2
:101DA000002701F01FF9074639462A46334601F05D
:101DB0000700C0F1070ABAF1040F02D94FF0040A74
:101DC00001E0C0F1070AD14600F1040ABAF1070F99
:101DD00002D24FF0000A01E0A0F1030AD4464FF00E
:101DE000010A0AFA09FAAAF1010A0AEA020A0AFA37
:101DF0000CFA4FF0010B0BFA0CFBABF1010B0BEAE9
:101E0000030B4AEA0B042146404601F0F3F8BDE813
:101E1000F09F000000BF00F00702064B19684FF664
:101E2000FF031940044B0B4343EA0221014B1960A5
:101E300000BF70470CED00E00000FA0570B50446E5
:101E40000D460CB9012070BD5A48006800F007002B
:101E5000A8420ED25748006820F007002843554991
:101E600008600846006800F00700A84201D0012081
:101E7000E9E7207800F0020002281DD1207800F068
:101E80000400042805D14C48406840F4E0604A4909
:101E90004860207800F00800082805D146484068CE
:101EA00040F46050444948604348406820F0F000E6
:101EB000A168084340494860207800F0010078B3E9
:101EC0006068012806D13C48006800F4003090B9F1
:101ED0000120B8E76068022806D13748006800F0A2
:101EE000007040B90120AEE73348006800F00200FE
:101EF00008B90120A7E73048406820F00300616876
:101F000008432D494860FFF78DFB064609E0FFF7BF
:101F100089FB801B41F28831884202D9032092E775
:101F200007E02548406800F00C006168B0EB810FC5
:101F3000EDD12048006800F00700A8420ED91D48E6
:101F4000006820F0070028431A4908600846006826
:101F500000F00700A84201D0012074E7207800F0CB
:101F60000400042807D11448406820F4E060E168C8
:101F7000084311494860207800F00800082808D17B
:101F80000D48406820F46050216940EAC1000A49C8
:101F9000486000F03FF808494968C1F30311074A57
:101FA000515CC8400649086006480068FFF7BCFE5F
:101FB000002048E70020024000100240B440000822
:101FC0000000002008000020014800687047000061
:101FD0000000002000B5FFF7F7FF04494968C1F38E
:101FE0000221034A515CC84000BD000000100240BD
:101FF000C440000800B5FFF7E7FF04494968C1F392
:10200000C221034A515CC84000BD000000100240DC
:10201000C440000870B500210022002400230020E5
:10202000134D696801F00C05F5B1042D02D0082D9F
:1020300019D101E00F4819E00F4DC1F38346AB5DA4
:1020400001F4803555B10A4D6D68C5F340450B4E1E
:10205000725D084D5D43B5FBF2F402E0084D03FBF1
:1020600005F4204602E000BF024800BF00BF70BD7B
:102070000010024000127A00CC400008DC4000084A
:1020800000093D00F8B504460CB90120F8BD2078E0
:1020900000F00100002878D0F848406800F00C00FB
:1020A00004280CD0F548406800F00C00082811D135
:1020B000F248406800F48030B0F5803F0AD1EF4824
:1020C000006800F4003000285FD0606800285CD110
:1020D0000120DBE700BF6068B0F5803F06D1E7482C
:1020E000006840F48030E549086028E0606858B92D
:1020F000E248006820F48030E04908600846006843
:1021000020F4802008601AE06068B0F5A02F0BD1A1
:10211000DA48006840F48020D84908600846006822
:1021200040F4803008600AE0D448006820F4803031
:10213000D24908600846006820F48020086000BF8B
:10214000606888B1FFF76EFA054606E0FFF76AFAA5
:10215000401B642801D9032098E7C848006800F4B0
:1021600000300028F2D010E0FFF75CFA054606E0E8
:10217000FFF758FA401B642801D9032086E7BF48BF
:10218000006800F400300028F2D1207800F002004E
:10219000022857D1B948406800F00C0050B1B74848
:1021A000406800F00C00082818D1B448406800F4DA
:1021B000803098B9B148006800F0020020B1206971
:1021C000012801D0012061E7AC48006820F0F80048
:1021D000616940EAC100A949086033E02069E8B1BB
:1021E0000120A7490860FFF71DFA054606E0FFF742
:1021F00019FA401B022801D9032047E79F480068CD
:1022000000F002000028F2D09C48006820F0F8009E
:10221000616940EAC1009949086013E000209849CB
:102220000860FFF7FFF9054606E0FFF7FBF9401BE2
:10223000022801D9032029E79048006800F0020035
:102240000028F2D1207800F0080008282DD1A069DC
:10225000B8B101208B490860FFF7E4F9054606E0B4
:10226000FFF7E0F9401B022801D903200EE783485D
:10227000406A00F002000028F2D0012000F08EFD3C
:1022800013E000207F490860FFF7CCF9054606E01F
:10229000FFF7C8F9401B022801D90320F6E677486A
:1022A000406A00F002000028F2D1207800F004001B
:1022B000042873D100277148C06900F0805070B9BC
:1022C00000BF6E48C06940F080506C49C861084644
:1022D000C06900F08050009000BF00BF01276A482D
:1022E000006800F48070B0B96748006840F48070FE
:1022F00065490860FFF796F9054606E0FFF792F991
:10230000401B642801D90320C0E65F48006800F440
:1023100080700028F2D000BFE068012806D157483D
:10232000006A40F001005549086227E0E06858B9AA
:102330005248006A20F00100504908620846006ACD
:1023400020F00400086219E0E06805280BD14B4832
:10235000006A40F00400494908620846006A40F0FB
:10236000010008620AE04548006A20F00100434984
:1023700008620846006A20F00400086200BFE068B6
:10238000A0B1FFF74FF9054609E0FFF74BF9401BF5
:1023900041F28831884202D9032077E622E03748AB
:1023A000006A00F002000028EFD012E0FFF73AF9CF
:1023B000054608E0FFF736F9401B41F288318842B4
:1023C00001D9032062E62D48006A00F002000028CF
:1023D000F0D1012F05D12948C06920F0805027494C
:1023E000C86100BFE069C8B32448406800F00C0031
:1023F000082860D0E069022848D1002020490866FA
:10240000FFF710F9054606E0FFF70CF9401B02281C
:1024100001D903203AE61948006800F0007000284E
:10242000F2D1206AB0F5803F07D11448406820F40B
:102430000030A168084311494860D4E90801084305
:102440000E49496821F4741108430C494860012081
:102450000B490866FFF7E6F8054607E03DE0FFF7A1
:10246000E1F8401B022801D903200FE60348006869
:1024700000F000700028F2D02FE0000000100240B1
:102480000000424280044242007000400020144993
:102490000866FFF7C7F8054606E0FFF7C3F8401BDC
:1024A000022801D90320F1E50E48006800F0007011
:1024B0000028F2D111E0E069012800D1E6E50948E1
:1024C000466806F48031206A814204D106F4701116
:1024D000606A814201D00120D8E50020D6E50000E5
:1024E000000042420010024070B504462546681EB6
:1024F000B0F1807F01D301200FE0681E4FF0E02192
:1025000048610F214FF0FF3000F074FD00204FF0C4
:10251000E021886107200861002070BD10B50446E5
:102520000CB9012010BDA06900B100E000BF94F813
:10253000410028B9002084F84000204600F02AF825
:10254000242084F841002068C06820F400502168ED
:10255000C860204600F06CFC2068006920F49040C0
:10256000216808612068406920F02A0021684861DC
:102570002068C06840F400502168C8600020606492
:10258000202084F8410084F842000020606300BFEE
:10259000C8E7000010B586B0044600BF1E48806939
:1025A00040F480401C4988610846806900F48040FE
:1025B000019000BF00BF00BF0846806940F00400E2
:1025C00088610846806900F00400019000BF00BFE8
:1025D00000BF0846806940F00400886108468069B1
:1025E00000F00400019000BF00BF481502900220D7
:1025F0000390012004900320059002A90748FEF7EC
:1026000081FE4FF4806002900020039002A90348ED
:10261000FEF778FE06B010BD001002400008014031
:102620002DE9F84F04460E46174699464FF0000A2A
:1026300094F8410020284AD106B117B90120BDE81D
:10264000F88F00206064212084F84100FEF7EAFF43
:102650008246A784E784A068B0F5805F04D1206932
:1026600010B90025B04602E035464FF000081BE0E7
:102670005346002280212046CDF8009000F056FC01
:1026800008B10320DBE745B9B8F80000C0F3080043
:102690002168486008F1020803E028782168486052
:1026A0006D1CE08C401EE084E08C0028E0D1534695
:1026B000002240212046CDF8009000F037FC08B100
:1026C0000320BCE7202084F841000020B7E7022067
:1026D000B5E700BFFEE7014608684069C0F3802007
:1026E000B0B16FF480600A68506100200863202058
:1026F00081F83D00002081F83E00086C40F00400A5
:10270000086400BF002081F83C0000BF0120704732
:102710000020FCE72DE9F84304460D4690461E468E
:10272000E76A2068006840F4806021680860082F2C
:1027300004D0012F02D017F5803F06D12068006831
:1027400040F480702168086008E0206B112805D1F2
:102750002068006840F480702168086043460022C9
:102760004FF001112046009600F003F960B1206897
:10277000006800F48070B0F5807F02D14FF40070E3
:1027800020640320BDE8F8832069B0F5804F05D1AF
:10279000E8B240F001002168086149E005F44070AA
:1027A000F02141EAE010216808613346424626499B
:1027B000204600F03DF908B10120E3E7E8B22168C6
:1027C0000861334642462049891F204600F030F90F
:1027D00008B10120D6E700BF0020009020684069C2
:1027E000009020688069009000BF00BF20680068EA
:1027F00040F4807021680860434600224FF00111C8
:102800002046009600F0B5F858B12068006800F442
:102810008070B0F5807F02D14FF4007020640320F7
:10282000B0E705F44070F12141EAE0102168086149
:10283000334642460449891F204600F0F9F808B1A2
:1028400001209FE700209DE7080001002DE9F843E3
:1028500004460D4617469846E66A082E04D0012E17
:1028600002D016F5803F06D12068006840F48070E1
:102870002168086008E0206B122805D120680068F4
:1028800040F48070216808603B4600224FF001113F
:102890002046CDF8008000F06CF860B12068006838
:1028A00000F48070B0F5807F02D14FF40070206496
:1028B0000320BDE8F8832069B0F5804F04D105F00E
:1028C000FE002168086112E005F44070F02141EA41
:1028D000E0102168086143463A460B49204600F063
:1028E000A7F808B10120E4E7E8B22168086143468F
:1028F0003A460549891F204600F09AF808B10120A0
:10290000D7E70020D5E700000800010070B50446B5
:102910000D46164625E02046FFF7DDFE08B10120F2
:1029200070BD681CE8B1FEF77DFE801BA84200D890
:10293000BDB920684069C0F3800090B900202063D1
:10294000202084F83D00002084F83E00206C40F0F8
:102950002000206400BF002084F83C0000BF01205C
:10296000DEE720684069C0F380000028D3D0002053
:10297000D6E72DE9F04104460D4617461E46DDF820
:10298000188038E0701CA8B3FEF74CFEA0EB0800DE
:10299000B04200D876BBC5F3074001280AD12068B1
:1029A0004069A9B20840A9B2884201D101200BE0D8
:1029B000002009E020688069A9B20840A9B28842D5
:1029C00001D1012000E00020B84214D10020206392
:1029D000202084F83D00002084F83E00206C40F068
:1029E0002000206400BF002084F83C0000BF0120CC
:1029F000BDE8F081FFE7C5F3074001280AD1206850
:102A00004069A9B20840A9B2884201D101200BE077
:102A1000002009E020688069A9B20840A9B2884274
:102A200001D1012000E00020B842ABD00020DFE758
:102A30002DE9F04104460D4616461F4658E0206831
:102A40004069C0F38020E8B12068006840F400705D
:102A5000216808606FF4806021684861002020636D
:102A6000202084F83D00002084F83E00206C40F0D7
:102A70000400206400BF002084F83C0000BF012057
:102A8000BDE8F081701C90B3FEF7CCFDC01BB042D6
:102A900000D866BBC5F3074001280AD12068406909
:102AA000A9B20840A9B2884201D101200BE0002060
:102AB00009E020688069A9B20840A9B2884201D122
:102AC000012000E0002090B900202063202084F83D
:102AD0003D00002084F83E00206C40F0200020647F
:102AE00000BF002084F83C0000BF0120C8E7FFE7DA
:102AF000C5F3074001280AD120684069A9B20840FF
:102B0000A9B2884201D101200BE0002009E0206831
:102B10008069A9B20840A9B2884201D1012000E031
:102B2000002000288BD00020AAE770B504460D468F
:102B3000164637E020684069C0F30010A0B16FF07E
:102B400010002168486100202063202084F83D00A7
:102B5000002084F83E00206C206400BF002084F830
:102B60003C0000BF012070BDFEF75CFD801BA84249
:102B700000D8BDB920684069C0F3801090B900202A
:102B80002063202084F83D00002084F83E00206C63
:102B900040F02000206400BF002084F83C0000BF0B
:102BA0000120E0E720684069C0F380100028C1D010
:102BB0000020D8E770B504460D46164625E02046AD
:102BC000FFF789FD08B1012070BD681CE8B1FEF770
:102BD00029FD801BA84200D8BDB920684069C0F318
:102BE000C01090B900202063202084F83D00002010
:102BF00084F83E00206C40F02000206400BF0020DC
:102C000084F83C0000BF0120DEE720684069C0F383
:102C1000C0100028D3D00020D6E7000000B585B052
:102C200000BF2F48C06940F480002D49C8610846A4
:102C3000C06900F48000009000BF00BF00BF0846DC
:102C4000806940F0080088610846806900F008004B
:102C5000009000BF00BF00BF0846806940F0080038
:102C600088610846806900F00800009000BF00BF3E
:102C70000815019012200290032004900020039078
:102C800001A91848FEF73EFB4FF40060019001A92E
:102C90001448FEF737FB1448FEF7CAFCE8B91048A1
:102CA000006940F480000E4908610846006920F47C
:102CB000800008610D480C49086001140A48016150
:102CC0000B48094948600021074841618160C161A2
:102CD0000162C1608161FEF7AFFC05B000BD00007C
:102CE00000100240000C0140840900200058004000
:102CF000801A060000B585B000BF2448806940F006
:102D00000400224988610846806900F004000090B0
:102D100000BF00BF00BF0846806940F00400886122
:102D20000846806900F00400009000BF00BF00BFAB
:102D30000846806940F0040088610846806900F018
:102D40000400009000BF00BF02200190012002900B
:102D500003900320049001A90D48FEF7D3FA042044
:102D6000019001A90A48FEF7CDFA0820019001A9B7
:102D70000748FEF7C7FA0220054910310860042011
:102D800008600820086005B000BD00000010024087
:102D90000008014000BFFEE77047704708B50849CA
:102DA0000968C9084FF47A72B1FBF2F1414300910E
:102DB00000BF00BF00994A1E00920029F9D108BD4A
:102DC00000000020704710B5FEF78EFF10BD00B563
:102DD0008FB014210AA8FDF73BFE28216846FDF7B5
:102DE00037FE012000900004019000200290022094
:102DF0000790C10308914FF4E01109916846FFF76D
:102E000041F908B100BFFEE70F200A9002200B90A5
:102E100000200C900E904FF480600D9002210AA8C3
:102E2000FFF70CF808B100BFFEE70FB000BD704718
:102E300070B504462168096921F44051E2681143E4
:102E4000226811612269A1681143626941EA0205A1
:102E50002168C96841F20C62914329432268D1601C
:102E60002168496921F44071A269114322685161C6
:102E70002D4A2168914202D1FFF7BCF801E0FFF72B
:102E8000A9F800EBC00101EB001162689200B1FBF0
:102E9000F2F100EBC00202EB001263689B00B2FB90
:102EA000F3F26423B2FBF3F202EBC20303EB021270
:102EB000A1EB8201322202EB01116422B1FBF2F19B
:102EC00001F0F00100EBC00202EB001263689B000E
:102ED000B2FBF3F26423B2FBF3F201EB021200EB5C
:102EE000C00101EB001163689B00B1FBF3F100EB43
:102EF000C00303EB00136668B600B3FBF6F3642669
:102F0000B3FBF6F303EBC30606EB0313A1EB83015C
:102F1000322303EB01116423B1FBF3F101F00F0144
:102F200011442268916070BD003801402DE9F041E4
:102F300004460D4617469846069E34E0701C88B33A
:102F40002EB1FEF76FFBA0EB0800B0422BD900BFFB
:102F500000BF21680C3151E8001F21F4D0702168B6
:102F60000C3141E80002002AF3D100BF00BF00BFCE
:102F70002168143151E8001F21F00100216814314B
:102F800041E80002002AF3D100BF202084F841006C
:102F900084F8420000BF002084F8400000BF0320F6
:102FA000BDE8F081FFE7206800682840A84201D111
:102FB000012000E00020B842C0D00020F0E700BFB0
:102FC000FEE700000FB4054B10B503A9044A0298B0
:102FD00000F0F6F810BC5DF814FB0000F1380008B2
:102FE0002000002002480068C0F302207047000063
:102FF0000CED00E010B5002804DB0A07130E054AAB
:10300000135406E00A07140E034A00F00F031B1FB7
:10301000D45410BD00E400E018ED00E002E008C860
:10302000121F08C1002AFAD170477047002001E042
:1030300001C1121F002AFBD1704700002DE9FF5F7C
:1030400082B00021DDE90430020DDDF840B0034319
:1030500018D044F61050A2F2FF32424315141198D2
:1030600001281FD0A5EB0B00401C5FEA000A4FF0BF
:1030700000064E4FDFF83891B046504615D5CAF1DC
:10308000000413E0119801244AA3012801D16FEA3A
:103090000B010298119AC0E90031C0E9024206B062
:1030A000BDE8F09FCBF10000DFE704460021404A75
:1030B000491842EB0450CDE9001012E0E00707D0B8
:1030C00032463B4640464946FDF73CFE804689462F
:1030D00032463B4610461946FDF734FE06460F467B
:1030E0006410002CEAD1DDE90401DDE90023BAF126
:1030F000000F06DAFDF726FE42464B46FDF722FE9C
:1031000005E0FEF719F842464B46FEF715F804466F
:103110000E460022284BFDF7CBFE03D84FF0FF30C0
:10312000014607E00022254B20463146FDF763FDAE
:10313000FEF771F8102409E0002C0ADB0A220023B4
:10314000FDF714FF039B30321A55641E50EA01024A
:10315000F2D1641C039AC4F111031444119A012A98
:1031600003D0012208430DD10AE0084304D0002017
:103170004FF0110B119072E7A3EB0B056D1E0DE0E4
:103180005B4504DD4FF0000205F1010504E003DAC0
:103190004FF00002A5F10105002AECD00298119928
:1031A000C0E90231C0E9004579E7000000001440A1
:1031B0000000F03F300000000000F0430000E03F5E
:1031C0002DE9FF4F95B09B468946064600250FE244
:1031D000252877D100242746F84A0121059400E0EC
:1031E000044316F8013F203B01FA03F01042F7D1E7
:1031F00030782A2811D06FF02F033078A0F13002F8
:10320000092A16D8059A44F0020402EB820203EB65
:1032100042021044761C0590EFE759F8042B059202
:10322000002A03DA504244F40054059044F00204AA
:10323000761C30782E2816D116F8010F44F00404BD
:103240002A280DD06FF02F023078A0F13003092B1F
:1032500009D807EB870302EB4303C718761CF3E793
:1032600059F8047B761C30786C280FD006DC4C288B
:1032700017D068280DD06A2814D104E0742810D023
:103280007A280FD10DE044F400140AE044F48014CD
:1032900001E044F440147278824202D104F58014B3
:1032A000761C761C307866280BD013DC582877D033
:1032B00009DC002875D04528F6D04628F4D04728E8
:1032C0001AD19DE118E0632835D0642879D06528AB
:1032D00012D195E1702873D008DC6728F1D06928F5
:1032E0006FD06E280DD06F2806D1B5E073282CD092
:1032F000752875D0782874D05A46179990476D1C58
:1033000075E1C4F30250022809D003280DD0D9F882
:10331000001004280DD00D6009F1040967E1D9F807
:103320000010EA17C1E90052F6E7D9F800100D8045
:10333000F2E70D70F0E719F8041B8DF8001000207B
:103340008DF80100EA46012003E059F804AB4FF084
:10335000FF3061074FF0000102D40DE008F10101D8
:103360008846B9420FDA8045F8DB1AF808100029C0
:10337000F4D108E008F1010188468142FADB1AF82D
:1033800008100029F6D105985B46A0EB08072146F6
:103390003846179A00F094FA284400EB080507E035
:1033A0004DE029E10DE01AF8010B5A4617999047B4
:1033B000B8F10108F7D25B4621463846179A13E167
:1033C00042E00A220092C4F302524FF0000A022A9D
:1033D00008D059F804CB032A4FEAEC710AD00DE06B
:1033E00029E02AE009F1070121F00702F2E802C111
:1033F000914609E00FFA8CFC4FEAEC71042A03D1E4
:103400004FFA8CFC4FEAEC71002907DA0A460021DA
:10341000DCF1000C61EB02012D2202E0220504D553
:103420002B228DF80420012203E0E20701D02022A4
:10343000F7E7904659E00A2102E010220DE0102142
:103440004FF0000A00910BE010224FF0000A44F008
:1034500004040827009203E008224FF0000A0092BB
:10346000C4F30252022A05D059F804CB0021032AE2
:1034700008D009E009F1070121F00702F2E802C1D2
:10348000914605E01FFA8CFC042A01D10CF0FF0CD8
:103490004FF00008220728D5702806D0009B83F043
:1034A000100353EA0A0305D00EE040228DF80420F1
:1034B000012208E05CEA010206D030228DF80420E7
:1034C0008DF8050002229046009B83F0080353EA22
:1034D0000A030AD15CEA010201D1620705D5302254
:1034E0008DF804204FF001087F1E582804D034A026
:1034F00003900EA802900DE036A0F9E7534660460F
:10350000009AFDF733FD84460398825C0298401EC2
:10351000029002705CEA0100F0D1029806A9081A34
:1035200000F1200A600702D524F4803400E001276E
:10353000574502DDA7EB0A0000E0002000EB0A017E
:10354000009005984144401A0590E00306D45B467C
:103550002146179A059800F0B3F90544002706E0C4
:1035600001A85A46C05D179990476D1C7F1C4745BE
:10357000F6DBE0030CD55B462146179A059800F070
:103580009FF9054404E030205A46179990476D1C76
:103590000099481E00900029F5DC08E00298029985
:1035A0005A460078491C0291179990476D1CBAF150
:1035B0000001AAF1010AF1DC65E10000092801001F
:1035C0003031323334353637383961626364656699
:1035D000000000003031323334353637383941425B
:1035E000434445460000000000F058F90544761CAD
:1035F000307800287FF4ECAD19B02846BDE8F08F94
:10360000620700D4062709F1070222F0070CFCE844
:103610000223E14603F000485FEA080C02D00FF2F3
:10362000702C0DE05FEA045C02D50FF2682C07E015
:103630005FEAC47C02D00FF2602C01E0AFF2700CA4
:103640004FF0FF3823F00043CDF850C065280CD070
:1036500006DC452809D046281DD047283DD13DE04D
:10366000662818D067287ED138E00021112F01DBB1
:10367000112000E0781CCDE9000106A90EA8FFF793
:10368000DDFCDDE90F010E9A03910021009207F1A4
:10369000010A04914DE04FF000400097CDE9011080
:1036A00006A90EA8FFF7CAFCDDE90F0203920E9BE4
:1036B00011990022DDF80CA00093049211B9791C35
:1036C00000EB010AB7EB0A0004D4C0F1FF3007F1A8
:1036D000010A0490AAEB0700019044E0012F00DAF0
:1036E00001270021112F01DD112000E03846CDE92E
:1036F000000106A90EA8FFF7A1FCDDE90F010E9A53
:103700000391002104910092BA4621070CD4039939
:10371000514500DA8A46BAF1010F05DD009AAAF197
:103720000101515C302908D0B84202DA10F1040FCF
:1037300006DA0121CDE9011015E0AAF10101E9E75E
:10374000002805DC049901440491AAEB000102E081
:10375000411C514500DD8A460499401A401C0190E5
:103760004FF000400290200704D40198504501DB3F
:10377000CDF8048000208DF84F0002980DF14F071E
:10378000B0F1004F25D02B200E9002984FF0020888
:1037900000280CDA404202902D200E9007E00A210A
:1037A0000298FDF7CDFB3031029007F8011DB8F10A
:1037B0000001A8F10108F2DC02980028EFD1791E7F
:1037C0000E980870307800F0200040F0450007F8AF
:1037D000020D12A8C01B00F107081498007800B170
:1037E000012000EB0A01019801EBE07105984144CA
:1037F000401A401E0590E00306D45B462146179A06
:10380000059800F05DF805441498007818B15A4600
:10381000179990476D1CE00324D55B462146179A03
:10382000059800F04DF805441CE00498002807DBDB
:10383000DDE90301884203DD0098405C179901E04F
:10384000179930205A469047049805F10105401C0D
:1038500004900198401E019004D12E205A461799D9
:1038600090476D1CBAF10001AAF1010ADDDC05E008
:1038700017F8010B5A46179990476D1CB8F10001D3
:10388000A8F10108F4DC5B462146179A0598ABE6DF
:103890002D0000002B000000200000002DE9F04169
:1038A000044600251E461746880404D405E0394620
:1038B0002020B0476D1C641EF9D52846BDE8F08174
:1038C0002DE9F041044600251E469046C80301D567
:1038D000302700E02027880404D505E0414638461B
:1038E000B0476D1C641EF9D52846BDE8F081000084
:1038F00013B50C464FF47A73012269460248FEF76D
:103900008FFE00981CBD0000D809002070B5044649
:103910000D4604482A46214603680348FCF702FC8A
:1039200070BD0000180000202C0A00201FB50024E4
:10393000FEF7E6F9FFF74BFAFDF79AFCFFF7DAF925
:103940002FA0FFF73FFB38A0FFF73CFB45A0FFF798
:1039500039FB51A0FFF736FB00F018FB00F0F8F838
:103960004DE058480078002849D00020554908709B
:1039700002A800F0C3F8694602A8FFF7C7FF01A933
:1039800003A800F087FB50490298FDF7CFFA13D245
:103990004D490398FDF7CAFA0ED24C49009841F8F8
:1039A00024004B49019841F82400601C84B24FF474
:1039B00080204849086003E000240420454908604D
:1039C000B4F5967F1BDB4FF49671404800F0E0F8A9
:1039D00007464FF496723E493C4800F0D3F98046C2
:1039E00039463DA0FFF7EEFA4046FDF736FA0546A8
:1039F0002A460B463DA0FFF7E5FA002400BFB0E7DA
:103A00000D0ABBB6D3ADCAB9D3C3D2B0BBF0D0A1F7
:103A1000D6C7D0C4C2CAD1AAD1F5BCECB2E2C4A305
:103A2000BFE9A3A10D0A00000D0AC7EBBDABD6B8D4
:103A3000BCE2C7E1CCF9D4DAD0C4C2CAD1AAD1F56C
:103A4000BCECB2E2C4A3BFE9C9CFA3ACCAB9C6E417
:103A5000CDEAC8ABB8B2B8C7C4A3BFE9BCECB2E208
:103A6000C7F800000AB5B1C2CCB5C6C1C1D4F2B422
:103A7000FAB1EDD5FDD4DAB6C1C8A1D6D0A3ACC990
:103A8000D4B5C8C6ACBFCCB4AEBFDABDABBBE1B435
:103A9000F2D3A1CAFDBEDD000AC7EBB1A3B3D6CAFB
:103AA000D6D6B8D3EBC4A3BFE9BCE4B5C4BEB2D686
:103AB000B9D7B4CCACA3ACD2D4BCF5C9D9CEF3B28F
:103AC000EE0D0A000D00002000504347D4040020F2
:103AD0002400002010080140D0C4C2CAA3BA256443
:103AE0002020B4CE2F6D696E20202000D1AAD1F500
:103AF000A3BA252E3266202025250A001FB50446CC
:103B0000062202A9072000F017FA9DF80800000419
:103B10009DF8091040EA01209DF80A100843C0F3FF
:103B2000110000909DF80B0000049DF80C1040EA75
:103B300001209DF80D100843C0F31100019000987A
:103B4000FDF772F920600198FDF76EF960601FBD06
:103B500008B509480068094B094A1D210090094829
:103B6000FCF751FF04480068074B054A1D210090EF
:103B70000648FCF748FF08BD18000020440A002052
:103B8000E04000082C0A0020B80A0020380A002073
:103B90002DE9F04F89B005460F4672480088384439
:103BA000704908807048007870B908460088B0F500
:103BB000967F03DA002009B0BDE8F08F01206A4942
:103BC00008700020674908804FF00009002407E0D2
:103BD00055F824104846FCF746FF8146601C84B225
:103BE000BC42F5DB3846FDF71FF90446214648463E
:103BF000FCF7C3FF8146002601241FE055F824008E
:103C00004946FDF793F917D2621E55F8221055F870
:103C10002400FDF78BF90FD2621C55F8221055F8DD
:103C20002400FDF783F907D20A2E05DA3046711C0D
:103C3000CEB204A921F81040601C84B2781EA042C4
:103C4000DCDC022E13DA49480078401C4749087032
:103C500008460078052807DB0020454908804249CE
:103C6000087042490870A6E741480088A3E74FF072
:103C7000000A01200AE004A931F81020411E04AB1B
:103C800033F81110511A8A44411CC8B2B042F2DB19
:103C9000701EBAFBF0F01FFA80FBBBF1000F02D1DF
:103CA0003348008887E75846FDF7BEF80146019083
:103CB0003048FCF762FF0446FDF7BBF81FFA80F8B6
:103CC000B8F1280F02DBB8F1B40F13DD27480078F4
:103CD000401C2649087008460078052807DB0020AC
:103CE00023490880204908702049087063E720486C
:103CF000008860E720482149097820F811801F4892
:103D00000078401C052190FBF1F201FB12001B49D9
:103D100008701B480078052804DA19480078401C10
:103D2000174908700020039000BF07E0124931F8DE
:103D30001020039911440391411CC8B2104909781D
:103D40008842F3DB0E4909780398B0FBF1F080B2AA
:103D500002900749029808800020044908700298E0
:103D600029E70000120000201000002014000020AD
:103D7000160000200080BB45200A00200E00002015
:103D80000F0000202DE9F04F93B005460E46174670
:103D900028681190D5F8008030681090D6F800900F
:103DA000012423E055F824101198FDF7B5F802D24C
:103DB00055F82400119055F824104046FDF7B6F848
:103DC00001D255F8248056F824101098FDF7A4F875
:103DD00002D256F82400109056F824104846FDF7F9
:103DE000A5F801D256F82490601C84B2BC42D9DBFD
:103DF00041461198FCF789FE0F9049461098FCF750
:103E000084FE0E903D490F98FDF786F804D33B4998
:103E10000E98FDF781F803D2394813B0BDE8F08F52
:103E200041460E98FCF777FE49460D900F98FCF737
:103E300072FE0C900D99FCF7A0FE82465046FDF7ED
:103E40000CF8304A304BCDE90C01FDF719F809D3D5
:103E50005046FDF702F800222C4BCDE90C01FDF78E
:103E600027F801D22648D8E75046FCF7F6FF284A43
:103E7000284BCDE90401FCF765FFCDE90801504668
:103E8000FCF7EBFFCDE904015046FCF7E6FF224AC0
:103E9000224BCDE90001FCF755FFCDE90201DDE938
:103EA0000423FCF74FFFCDE90601DDE90823FCF709
:103EB000A2FE1B4A1B4BCDE90A01FCF79CFECDE993
:103EC0000C01FDF70DF883465846FCF7C6FF0022AB
:103ED000154BCDE90C01FCF7D3FF01D2DFF84CB054
:103EE0005846FCF7BAFF0022114BCDE90C01FCF754
:103EF000DFFF01D2DFF83CB058468EE700007A447D
:103F00000000C4429A9999999999B93F00000840D4
:103F1000B4C876BE9F5A3E4048E17A14AE8746C088
:103F2000AE47E17A14B657400080514000008C4201
:103F3000000059400000C8427CB506460C461546B4
:103F400001960A20012301AAAE2100900548FDF741
:103F500011FE0A202B462246AF2100900148FDF7B2
:103F600053FC7CBD840900207CB505460C468DF8C9
:103F700004508DF805400A20022301AAAE210090CA
:103F80000148FDF7F7FD7CBD8409002008B5FEF768
:103F900045FE4FF4FA70FDF789F900F03FF8402133
:103FA0000920FFF7E1FF0520FDF780F9E02102205D
:103FB000FFF7DAFF00210320FFF7D6FF00210420DE
:103FC000FFF7D2FF00210520FFF7CEFF00210620DA
:103FD000FFF7CAFF4F210820FFF7C6FF0321092082
:103FE000FFF7C2FF2F210A20FFF7BEFF2F210C2071
:103FF000FFF7BAFF2F210D20FFF7B6FF0121212087
:10400000FFF7B2FF012269460020FFF795FF01226A
:1040100069461046FFF790FF08BD000000B585B067
:104020000020019002900390049000BF1648806920
:1040300040F00400144988610846806900F00400DB
:10404000009000BF00BF00BF0846806940F001003B
:1040500088610846806900F00100009000BF00BF41
:1040600088150190094802900120039001A9084891
:10407000FDF748F9002201211720FDF78CFE1720DB
:10408000FDF779FE05B000BD0010024000002110D0
:104090000008014070B504460D4604482A462146F2
:1040A00003680348FCF73EF870BD000018000020CC
:1040B000380A002000000000000000000102030494
:1040C00006070809000000000102030402030405BA
:1040D000060708090A0B0C0D0E0F10100102000054
:1040E0007B34CABA6FEE10BBC55D57BB450C91BBA4
:1040F0004DEE9BBB741C45BBE8AC0F3B52B1423C40
:104100006113D83C8D3E383D2017873D9BAFB13DB4
:1041100009EDD53DD248EE3DF5DEF63DD248EE3D07
:1041200009EDD53D9BAFB13D2017873D8D3E383D14
:104130006113D83C52B1423CE8AC0F3B741C45BB08
:104140004DEE9BBB450C91BBC55D57BB6FEE10BBE5
:104150007B34CABA7441000800000020240000002B
:104160001C30000898410008240000200C0F0000BB
:104170002C3000080024F4000000000010000000B3
:10418000010000000000000000000000010000002D
:08419000010000000000000026
:04000005080000ED02
:00000001FF
